###############################################################################
#
# IAR C/C++ Compiler V6.80.1.1057 for Atmel AVR           21/Jul/2016  09:26:06
# Copyright 1996-2016 IAR Systems AB.
# Standalone license - IAR Embedded Workbench 4K Kickstart edition for Atmel AVR 6.80
#
#    Source file  =  
#        C:\Users\admin.akthar\Documents\Portal\snappyImages\SmartMesh_c_build\main.c
#    Command line =  
#        C:\Users\admin.akthar\Documents\Portal\snappyImages\SmartMesh_c_build\main.c
#        --cpu=m128rfa1 -ms -lCN List --initializers_in_flash --no_cse
#        --no_inline --no_code_motion --no_cross_call --no_clustering --no_tbaa
#        -e --eeprom_size 4096 -Oh --clib -I. -o Obj\main_1.r90
#    Locale       =  English_India.1252
#    List file    =  List\main_1.lst
#    Object file  =  Obj\main_1.r90
#
###############################################################################

C:\Users\admin.akthar\Documents\Portal\snappyImages\SmartMesh_c_build\main.c
      1          
      2          // (c) Copyright 2016 Synapse Wireless, Inc.
      3          
      4          // IMPORTANT NOTE:  This file is automatically generated.  Any modifications
      5          //                  WILL BE LOST if you rerun snapbuild.
      6          #include "snappy.h"
      7          
      8          #include "snap_utils.h"
      9          
     10          // Wrapped functions: 
     11          int16_t take_averaged_sample(int16_t);
     12          int16_t GetADCSanmpledValues(int16_t, int16_t);
     13          void startup();
     14          void take_averaged_sample_all_channels(int16_t);
     15          void ReadADCdatachunks(uint8_t *, int16_t);
     16          
     17          // Wrapper functions: 

   \                                 In  segment CODE, align 2, keep-with-next
     18          void _wrapper_GetADCSanmpledValues(uint8_t nargs, py_obj *stack, uint8_t *unused) {
   \                     _wrapper_GetADCSanmpledValues:
   \   00000000   93BA               ST      -Y, R27
   \   00000002   93AA               ST      -Y, R26
   \   00000004   938A               ST      -Y, R24
   \   00000006   2F80               MOV     R24, R16
   \   00000008   01D9               MOVW    R27:R26, R19:R18
     19          
     20              // Check arg count
     21              if(nargs != 3)
   \   0000000A   3003               CPI     R16, 3
   \   0000000C   F431               BRNE    ??_wrapper_GetADCSanmpledValues_0
     22                  RETURN_ERROR(nargs, INVALID_FUNC_ARGS)
     23          
     24              // check that none of the args are missing
     25              for (int16_t i = 0; i < nargs-1; i++)
   \   0000000E   01F9               MOVW    R31:R30, R19:R18
   \   00000010   9736               SBIW    R31:R30, 6
   \   00000012   E002               LDI     R16, 2
     26              {
     27                  if(stack[PARAM_INDEX(i, nargs)].type_code == TCM_UNBOUND)
   \                     ??_wrapper_GetADCSanmpledValues_1:
   \   00000014   8110               LD      R17, Z
   \   00000016   331F               CPI     R17, 63
   \   00000018   F4B9               BRNE    ??_wrapper_GetADCSanmpledValues_2
     28                      RETURN_ERROR(nargs, INVALID_FUNC_ARGS)
   \                     ??_wrapper_GetADCSanmpledValues_0:
   \   0000001A   E00B               LDI     R16, 11
   \   0000001C   91E0....           LDS     R30, pyerr
   \   00000020   91F0....           LDS     R31, (pyerr + 1)
   \   00000024   9509               ICALL
   \   00000026   2F28               MOV     R18, R24
   \   00000028   EF0D               LDI     R16, 253
   \   0000002A   EF1F               LDI     R17, 255
   \   0000002C   9F21               MUL     R18, R17
   \   0000002E   2D30               MOV     R19, R0
   \   00000030   9F20               MUL     R18, R16
   \   00000032   0D31               ADD     R19, R1
   \   00000034   01FD               MOVW    R31:R30, R27:R26
   \   00000036   0DE0               ADD     R30, R0
   \   00000038   1FF3               ADC     R31, R19
   \   0000003A   9733               SBIW    R31:R30, 3
   \   0000003C   E000               LDI     R16, 0
   \   0000003E   8300               ST      Z, R16
   \   00000040   0DA0               ADD     R26, R0
   \   00000042   1FB3               ADC     R27, R19
   \   00000044   9712               SBIW    R27:R26, 2
   \   00000046   C01A               RJMP    ??_wrapper_GetADCSanmpledValues_3
     29              }
   \                     ??_wrapper_GetADCSanmpledValues_2:
   \   00000048   9633               ADIW    R31:R30, 3
   \   0000004A   950A               DEC     R16
   \   0000004C   F719               BRNE    ??_wrapper_GetADCSanmpledValues_1
     30          
     31              // Check arg types
     32              if((stack[PARAM_INDEX(0, nargs)].type_code & TCM_TYPE) != TC_INT)
   \   0000004E   01F9               MOVW    R31:R30, R19:R18
   \   00000050   9736               SBIW    R31:R30, 6
   \   00000052   8100               LD      R16, Z
   \   00000054   710F               ANDI    R16, 0x1F
   \   00000056   3001               CPI     R16, 1
   \   00000058   F431               BRNE    ??_wrapper_GetADCSanmpledValues_4
     33                  RETURN_ERROR(nargs, INCOMPATIBLE_TYPES)
     34              if((stack[PARAM_INDEX(1, nargs)].type_code & TCM_TYPE) != TC_INT)
   \   0000005A   01F9               MOVW    R31:R30, R19:R18
   \   0000005C   9733               SBIW    R31:R30, 3
   \   0000005E   8100               LD      R16, Z
   \   00000060   710F               ANDI    R16, 0x1F
   \   00000062   3001               CPI     R16, 1
   \   00000064   F071               BREQ    ??_wrapper_GetADCSanmpledValues_5
     35                  RETURN_ERROR(nargs, INCOMPATIBLE_TYPES)
   \                     ??_wrapper_GetADCSanmpledValues_4:
   \   00000066   E004               LDI     R16, 4
   \   00000068   91E0....           LDS     R30, pyerr
   \   0000006C   91F0....           LDS     R31, (pyerr + 1)
   \   00000070   9509               ICALL
   \   00000072   01FD               MOVW    R31:R30, R27:R26
   \   00000074   973C               SBIW    R31:R30, 12
   \   00000076   E000               LDI     R16, 0
   \   00000078   8300               ST      Z, R16
   \   0000007A   971B               SBIW    R27:R26, 11
   \                     ??_wrapper_GetADCSanmpledValues_3:
   \   0000007C   930D               ST      X+, R16
   \   0000007E   930C               ST      X, R16
   \   00000080   C011               RJMP    ??_wrapper_GetADCSanmpledValues_6
     36          
     37              // Setup return value type
     38              stack[RV_INDEX(nargs)].type_code = TC_INT;
   \                     ??_wrapper_GetADCSanmpledValues_5:
   \   00000082   01F9               MOVW    R31:R30, R19:R18
   \   00000084   973C               SBIW    R31:R30, 12
   \   00000086   E001               LDI     R16, 1
   \   00000088   8300               ST      Z, R16
     39          
     40              // Call wrapped function
     41              stack[RV_INDEX(nargs)].value = (int16_t)GetADCSanmpledValues(
     42                  (int16_t)stack[PARAM_INDEX(0, nargs)].value,
     43                  (int16_t)stack[PARAM_INDEX(1, nargs)].value
     44              );
   \   0000008A   01F9               MOVW    R31:R30, R19:R18
   \   0000008C   9732               SBIW    R31:R30, 2
   \   0000008E   8120               LD      R18, Z
   \   00000090   8131               LDD     R19, Z+1
   \   00000092   01FD               MOVW    R31:R30, R27:R26
   \   00000094   9735               SBIW    R31:R30, 5
   \   00000096   8100               LD      R16, Z
   \   00000098   8111               LDD     R17, Z+1
   \   0000009A   ........           CALL    GetADCSanmpledValues
   \   0000009E   971B               SBIW    R27:R26, 11
   \   000000A0   930D               ST      X+, R16
   \   000000A2   931C               ST      X, R17
     45          }
   \                     ??_wrapper_GetADCSanmpledValues_6:
   \   000000A4   9189               LD      R24, Y+
   \   000000A6   91A9               LD      R26, Y+
   \   000000A8   91B9               LD      R27, Y+
   \   000000AA   9508               RET
     46          

   \                                 In  segment CODE, align 2, keep-with-next
     47          void _wrapper_ReadADCdatachunks(uint8_t nargs, py_obj *stack, uint8_t *unused) {
   \                     _wrapper_ReadADCdatachunks:
   \   00000000   93BA               ST      -Y, R27
   \   00000002   93AA               ST      -Y, R26
   \   00000004   938A               ST      -Y, R24
   \   00000006   2F80               MOV     R24, R16
   \   00000008   01D9               MOVW    R27:R26, R19:R18
     48          
     49              // Check arg count
     50              if(nargs != 3)
   \   0000000A   3003               CPI     R16, 3
   \   0000000C   F431               BRNE    ??_wrapper_ReadADCdatachunks_0
     51                  RETURN_ERROR(nargs, INVALID_FUNC_ARGS)
     52          
     53              // check that none of the args are missing
     54              for (int16_t i = 0; i < nargs-1; i++)
   \   0000000E   01F9               MOVW    R31:R30, R19:R18
   \   00000010   9736               SBIW    R31:R30, 6
   \   00000012   E002               LDI     R16, 2
     55              {
     56                  if(stack[PARAM_INDEX(i, nargs)].type_code == TCM_UNBOUND)
   \                     ??_wrapper_ReadADCdatachunks_1:
   \   00000014   8110               LD      R17, Z
   \   00000016   331F               CPI     R17, 63
   \   00000018   F4B9               BRNE    ??_wrapper_ReadADCdatachunks_2
     57                      RETURN_ERROR(nargs, INVALID_FUNC_ARGS)
   \                     ??_wrapper_ReadADCdatachunks_0:
   \   0000001A   E00B               LDI     R16, 11
   \   0000001C   91E0....           LDS     R30, pyerr
   \   00000020   91F0....           LDS     R31, (pyerr + 1)
   \   00000024   9509               ICALL
   \   00000026   2F28               MOV     R18, R24
   \   00000028   EF0D               LDI     R16, 253
   \   0000002A   EF1F               LDI     R17, 255
   \   0000002C   9F21               MUL     R18, R17
   \   0000002E   2D30               MOV     R19, R0
   \   00000030   9F20               MUL     R18, R16
   \   00000032   0D31               ADD     R19, R1
   \   00000034   01FD               MOVW    R31:R30, R27:R26
   \   00000036   0DE0               ADD     R30, R0
   \   00000038   1FF3               ADC     R31, R19
   \   0000003A   9733               SBIW    R31:R30, 3
   \   0000003C   E000               LDI     R16, 0
   \   0000003E   8300               ST      Z, R16
   \   00000040   0DA0               ADD     R26, R0
   \   00000042   1FB3               ADC     R27, R19
   \   00000044   9712               SBIW    R27:R26, 2
   \   00000046   C01A               RJMP    ??_wrapper_ReadADCdatachunks_3
     58              }
   \                     ??_wrapper_ReadADCdatachunks_2:
   \   00000048   9633               ADIW    R31:R30, 3
   \   0000004A   950A               DEC     R16
   \   0000004C   F719               BRNE    ??_wrapper_ReadADCdatachunks_1
     59          
     60              // Check arg types
     61              if((stack[PARAM_INDEX(0, nargs)].type_code & TCM_TYPE) != TC_STRING)
   \   0000004E   01F9               MOVW    R31:R30, R19:R18
   \   00000050   9736               SBIW    R31:R30, 6
   \   00000052   8100               LD      R16, Z
   \   00000054   790F               ANDI    R16, 0x9F
   \   00000056   3802               CPI     R16, 130
   \   00000058   F431               BRNE    ??_wrapper_ReadADCdatachunks_4
     62                  RETURN_ERROR(nargs, INCOMPATIBLE_TYPES)
     63              if(!(stack[PARAM_INDEX(0, nargs)].type_code & TCM_DYNAMIC))
     64                  RETURN_ERROR(nargs, INCOMPATIBLE_TYPES)
     65              if((stack[PARAM_INDEX(1, nargs)].type_code & TCM_TYPE) != TC_INT)
   \   0000005A   01F9               MOVW    R31:R30, R19:R18
   \   0000005C   9733               SBIW    R31:R30, 3
   \   0000005E   8100               LD      R16, Z
   \   00000060   710F               ANDI    R16, 0x1F
   \   00000062   3001               CPI     R16, 1
   \   00000064   F071               BREQ    ??_wrapper_ReadADCdatachunks_5
     66                  RETURN_ERROR(nargs, INCOMPATIBLE_TYPES)
   \                     ??_wrapper_ReadADCdatachunks_4:
   \   00000066   E004               LDI     R16, 4
   \   00000068   91E0....           LDS     R30, pyerr
   \   0000006C   91F0....           LDS     R31, (pyerr + 1)
   \   00000070   9509               ICALL
   \   00000072   01FD               MOVW    R31:R30, R27:R26
   \   00000074   973C               SBIW    R31:R30, 12
   \   00000076   E000               LDI     R16, 0
   \   00000078   8300               ST      Z, R16
   \   0000007A   971B               SBIW    R27:R26, 11
   \                     ??_wrapper_ReadADCdatachunks_3:
   \   0000007C   930D               ST      X+, R16
   \   0000007E   930C               ST      X, R16
   \   00000080   C00F               RJMP    ??_wrapper_ReadADCdatachunks_6
     67          
     68              // Setup return value type
     69              stack[RV_INDEX(nargs)].type_code = TC_NONE;
   \                     ??_wrapper_ReadADCdatachunks_5:
   \   00000082   01F9               MOVW    R31:R30, R19:R18
   \   00000084   973C               SBIW    R31:R30, 12
   \   00000086   E000               LDI     R16, 0
   \   00000088   8300               ST      Z, R16
     70          
     71              // Call wrapped function
     72              ReadADCdatachunks(
     73                  (uint8_t *)(stack[PARAM_INDEX(0, nargs)].value) + 1,
     74                  (int16_t)stack[PARAM_INDEX(1, nargs)].value
     75              );
   \   0000008A   01F9               MOVW    R31:R30, R19:R18
   \   0000008C   9732               SBIW    R31:R30, 2
   \   0000008E   8120               LD      R18, Z
   \   00000090   8131               LDD     R19, Z+1
   \   00000092   9715               SBIW    R27:R26, 5
   \   00000094   910D               LD      R16, X+
   \   00000096   911C               LD      R17, X
   \   00000098   5F0F               SUBI    R16, 255
   \   0000009A   4F1F               SBCI    R17, 255
   \   0000009C   ........           CALL    ReadADCdatachunks
     76          }
   \                     ??_wrapper_ReadADCdatachunks_6:
   \   000000A0   9189               LD      R24, Y+
   \   000000A2   91A9               LD      R26, Y+
   \   000000A4   91B9               LD      R27, Y+
   \   000000A6   9508               RET
     77          

   \                                 In  segment CODE, align 2, keep-with-next
     78          void _wrapper_startup(uint8_t nargs, py_obj *stack, uint8_t *unused) {
   \                     _wrapper_startup:
   \   00000000   93BA               ST      -Y, R27
   \   00000002   93AA               ST      -Y, R26
   \   00000004   938A               ST      -Y, R24
   \   00000006   2F80               MOV     R24, R16
   \   00000008   01D9               MOVW    R27:R26, R19:R18
     79          
     80              // Check arg count
     81              if(nargs != 1)
   \   0000000A   3001               CPI     R16, 1
   \   0000000C   F431               BRNE    ??_wrapper_startup_0
     82                  RETURN_ERROR(nargs, INVALID_FUNC_ARGS)
     83          
     84              // check that none of the args are missing
     85              for (int16_t i = 0; i < nargs-1; i++)
     86              {
     87                  if(stack[PARAM_INDEX(i, nargs)].type_code == TCM_UNBOUND)
     88                      RETURN_ERROR(nargs, INVALID_FUNC_ARGS)
     89              }
     90          
     91              // Check arg types
     92          
     93              // Setup return value type
     94              stack[RV_INDEX(nargs)].type_code = TC_NONE;
   \   0000000E   9716               SBIW    R27:R26, 6
   \   00000010   E000               LDI     R16, 0
   \   00000012   930C               ST      X, R16
     95          
     96              // Call wrapped function
     97              startup(
     98              );
   \   00000014   ........           CALL    startup
     99          }
   \   00000018   C018               RJMP    ??_wrapper_startup_1
   \                     ??_wrapper_startup_0:
   \   0000001A   E00B               LDI     R16, 11
   \   0000001C   91E0....           LDS     R30, pyerr
   \   00000020   91F0....           LDS     R31, (pyerr + 1)
   \   00000024   9509               ICALL
   \   00000026   2F28               MOV     R18, R24
   \   00000028   EF0D               LDI     R16, 253
   \   0000002A   EF1F               LDI     R17, 255
   \   0000002C   9F21               MUL     R18, R17
   \   0000002E   2D30               MOV     R19, R0
   \   00000030   9F20               MUL     R18, R16
   \   00000032   0D31               ADD     R19, R1
   \   00000034   01FD               MOVW    R31:R30, R27:R26
   \   00000036   0DE0               ADD     R30, R0
   \   00000038   1FF3               ADC     R31, R19
   \   0000003A   9733               SBIW    R31:R30, 3
   \   0000003C   E000               LDI     R16, 0
   \   0000003E   8300               ST      Z, R16
   \   00000040   0DA0               ADD     R26, R0
   \   00000042   1FB3               ADC     R27, R19
   \   00000044   9712               SBIW    R27:R26, 2
   \   00000046   930D               ST      X+, R16
   \   00000048   930C               ST      X, R16
   \                     ??_wrapper_startup_1:
   \   0000004A   9189               LD      R24, Y+
   \   0000004C   91A9               LD      R26, Y+
   \   0000004E   91B9               LD      R27, Y+
   \   00000050   9508               RET
    100          

   \                                 In  segment CODE, align 2, keep-with-next
    101          void _wrapper_take_averaged_sample(uint8_t nargs, py_obj *stack, uint8_t *unused) {
   \                     _wrapper_take_averaged_sample:
   \   00000000   93BA               ST      -Y, R27
   \   00000002   93AA               ST      -Y, R26
   \   00000004   938A               ST      -Y, R24
   \   00000006   2F80               MOV     R24, R16
   \   00000008   01D9               MOVW    R27:R26, R19:R18
    102          
    103              // Check arg count
    104              if(nargs != 2)
   \   0000000A   3002               CPI     R16, 2
   \   0000000C   F431               BRNE    ??_wrapper_take_averaged_sample_0
    105                  RETURN_ERROR(nargs, INVALID_FUNC_ARGS)
    106          
    107              // check that none of the args are missing
    108              for (int16_t i = 0; i < nargs-1; i++)
   \   0000000E   01F9               MOVW    R31:R30, R19:R18
   \   00000010   9733               SBIW    R31:R30, 3
   \   00000012   E001               LDI     R16, 1
    109              {
    110                  if(stack[PARAM_INDEX(i, nargs)].type_code == TCM_UNBOUND)
   \                     ??_wrapper_take_averaged_sample_1:
   \   00000014   8110               LD      R17, Z
   \   00000016   331F               CPI     R17, 63
   \   00000018   F4B9               BRNE    ??_wrapper_take_averaged_sample_2
    111                      RETURN_ERROR(nargs, INVALID_FUNC_ARGS)
   \                     ??_wrapper_take_averaged_sample_0:
   \   0000001A   E00B               LDI     R16, 11
   \   0000001C   91E0....           LDS     R30, pyerr
   \   00000020   91F0....           LDS     R31, (pyerr + 1)
   \   00000024   9509               ICALL
   \   00000026   2F28               MOV     R18, R24
   \   00000028   EF0D               LDI     R16, 253
   \   0000002A   EF1F               LDI     R17, 255
   \   0000002C   9F21               MUL     R18, R17
   \   0000002E   2D30               MOV     R19, R0
   \   00000030   9F20               MUL     R18, R16
   \   00000032   0D31               ADD     R19, R1
   \   00000034   01FD               MOVW    R31:R30, R27:R26
   \   00000036   0DE0               ADD     R30, R0
   \   00000038   1FF3               ADC     R31, R19
   \   0000003A   9733               SBIW    R31:R30, 3
   \   0000003C   E000               LDI     R16, 0
   \   0000003E   8300               ST      Z, R16
   \   00000040   0DA0               ADD     R26, R0
   \   00000042   1FB3               ADC     R27, R19
   \   00000044   9712               SBIW    R27:R26, 2
   \   00000046   C014               RJMP    ??_wrapper_take_averaged_sample_3
    112              }
   \                     ??_wrapper_take_averaged_sample_2:
   \   00000048   9633               ADIW    R31:R30, 3
   \   0000004A   950A               DEC     R16
   \   0000004C   F719               BRNE    ??_wrapper_take_averaged_sample_1
    113          
    114              // Check arg types
    115              if((stack[PARAM_INDEX(0, nargs)].type_code & TCM_TYPE) != TC_INT)
   \   0000004E   01F9               MOVW    R31:R30, R19:R18
   \   00000050   9733               SBIW    R31:R30, 3
   \   00000052   8100               LD      R16, Z
   \   00000054   710F               ANDI    R16, 0x1F
   \   00000056   3001               CPI     R16, 1
   \   00000058   F071               BREQ    ??_wrapper_take_averaged_sample_4
    116                  RETURN_ERROR(nargs, INCOMPATIBLE_TYPES)
   \   0000005A   E004               LDI     R16, 4
   \   0000005C   91E0....           LDS     R30, pyerr
   \   00000060   91F0....           LDS     R31, (pyerr + 1)
   \   00000064   9509               ICALL
   \   00000066   01FD               MOVW    R31:R30, R27:R26
   \   00000068   9739               SBIW    R31:R30, 9
   \   0000006A   E000               LDI     R16, 0
   \   0000006C   8300               ST      Z, R16
   \   0000006E   9718               SBIW    R27:R26, 8
   \                     ??_wrapper_take_averaged_sample_3:
   \   00000070   930D               ST      X+, R16
   \   00000072   930C               ST      X, R16
   \   00000074   C00D               RJMP    ??_wrapper_take_averaged_sample_5
    117          
    118              // Setup return value type
    119              stack[RV_INDEX(nargs)].type_code = TC_INT;
   \                     ??_wrapper_take_averaged_sample_4:
   \   00000076   01F9               MOVW    R31:R30, R19:R18
   \   00000078   9739               SBIW    R31:R30, 9
   \   0000007A   E001               LDI     R16, 1
   \   0000007C   8300               ST      Z, R16
    120          
    121              // Call wrapped function
    122              stack[RV_INDEX(nargs)].value = (int16_t)take_averaged_sample(
    123                  (int16_t)stack[PARAM_INDEX(0, nargs)].value
    124              );
   \   0000007E   01F9               MOVW    R31:R30, R19:R18
   \   00000080   9732               SBIW    R31:R30, 2
   \   00000082   8100               LD      R16, Z
   \   00000084   8111               LDD     R17, Z+1
   \   00000086   ........           CALL    take_averaged_sample
   \   0000008A   9718               SBIW    R27:R26, 8
   \   0000008C   930D               ST      X+, R16
   \   0000008E   931C               ST      X, R17
    125          }
   \                     ??_wrapper_take_averaged_sample_5:
   \   00000090   9189               LD      R24, Y+
   \   00000092   91A9               LD      R26, Y+
   \   00000094   91B9               LD      R27, Y+
   \   00000096   9508               RET
    126          

   \                                 In  segment CODE, align 2, keep-with-next
    127          void _wrapper_take_averaged_sample_all_channels(uint8_t nargs, py_obj *stack, uint8_t *unused) {
   \                     _wrapper_take_averaged_sample_all_channels:
   \   00000000   93BA               ST      -Y, R27
   \   00000002   93AA               ST      -Y, R26
   \   00000004   938A               ST      -Y, R24
   \   00000006   2F80               MOV     R24, R16
   \   00000008   01D9               MOVW    R27:R26, R19:R18
    128          
    129              // Check arg count
    130              if(nargs != 2)
   \   0000000A   3002               CPI     R16, 2
   \   0000000C   F431               BRNE    ??_wrapper_take_averaged_sample_all_channels_0
    131                  RETURN_ERROR(nargs, INVALID_FUNC_ARGS)
    132          
    133              // check that none of the args are missing
    134              for (int16_t i = 0; i < nargs-1; i++)
   \   0000000E   01F9               MOVW    R31:R30, R19:R18
   \   00000010   9733               SBIW    R31:R30, 3
   \   00000012   E001               LDI     R16, 1
    135              {
    136                  if(stack[PARAM_INDEX(i, nargs)].type_code == TCM_UNBOUND)
   \                     ??_wrapper_take_averaged_sample_all_channels_1:
   \   00000014   8110               LD      R17, Z
   \   00000016   331F               CPI     R17, 63
   \   00000018   F4B9               BRNE    ??_wrapper_take_averaged_sample_all_channels_2
    137                      RETURN_ERROR(nargs, INVALID_FUNC_ARGS)
   \                     ??_wrapper_take_averaged_sample_all_channels_0:
   \   0000001A   E00B               LDI     R16, 11
   \   0000001C   91E0....           LDS     R30, pyerr
   \   00000020   91F0....           LDS     R31, (pyerr + 1)
   \   00000024   9509               ICALL
   \   00000026   2F28               MOV     R18, R24
   \   00000028   EF0D               LDI     R16, 253
   \   0000002A   EF1F               LDI     R17, 255
   \   0000002C   9F21               MUL     R18, R17
   \   0000002E   2D30               MOV     R19, R0
   \   00000030   9F20               MUL     R18, R16
   \   00000032   0D31               ADD     R19, R1
   \   00000034   01FD               MOVW    R31:R30, R27:R26
   \   00000036   0DE0               ADD     R30, R0
   \   00000038   1FF3               ADC     R31, R19
   \   0000003A   9733               SBIW    R31:R30, 3
   \   0000003C   E000               LDI     R16, 0
   \   0000003E   8300               ST      Z, R16
   \   00000040   0DA0               ADD     R26, R0
   \   00000042   1FB3               ADC     R27, R19
   \   00000044   9712               SBIW    R27:R26, 2
   \   00000046   C014               RJMP    ??_wrapper_take_averaged_sample_all_channels_3
    138              }
   \                     ??_wrapper_take_averaged_sample_all_channels_2:
   \   00000048   9633               ADIW    R31:R30, 3
   \   0000004A   950A               DEC     R16
   \   0000004C   F719               BRNE    ??_wrapper_take_averaged_sample_all_channels_1
    139          
    140              // Check arg types
    141              if((stack[PARAM_INDEX(0, nargs)].type_code & TCM_TYPE) != TC_INT)
   \   0000004E   01F9               MOVW    R31:R30, R19:R18
   \   00000050   9733               SBIW    R31:R30, 3
   \   00000052   8100               LD      R16, Z
   \   00000054   710F               ANDI    R16, 0x1F
   \   00000056   3001               CPI     R16, 1
   \   00000058   F071               BREQ    ??_wrapper_take_averaged_sample_all_channels_4
    142                  RETURN_ERROR(nargs, INCOMPATIBLE_TYPES)
   \   0000005A   E004               LDI     R16, 4
   \   0000005C   91E0....           LDS     R30, pyerr
   \   00000060   91F0....           LDS     R31, (pyerr + 1)
   \   00000064   9509               ICALL
   \   00000066   01FD               MOVW    R31:R30, R27:R26
   \   00000068   9739               SBIW    R31:R30, 9
   \   0000006A   E000               LDI     R16, 0
   \   0000006C   8300               ST      Z, R16
   \   0000006E   9718               SBIW    R27:R26, 8
   \                     ??_wrapper_take_averaged_sample_all_channels_3:
   \   00000070   930D               ST      X+, R16
   \   00000072   930C               ST      X, R16
   \   00000074   C008               RJMP    ??_wrapper_take_averaged_sample_all_channels_5
    143          
    144              // Setup return value type
    145              stack[RV_INDEX(nargs)].type_code = TC_NONE;
   \                     ??_wrapper_take_averaged_sample_all_channels_4:
   \   00000076   01F9               MOVW    R31:R30, R19:R18
   \   00000078   9739               SBIW    R31:R30, 9
   \   0000007A   E000               LDI     R16, 0
   \   0000007C   8300               ST      Z, R16
    146          
    147              // Call wrapped function
    148              take_averaged_sample_all_channels(
    149                  (int16_t)stack[PARAM_INDEX(0, nargs)].value
    150              );
   \   0000007E   8107               LDD     R16, Z+7
   \   00000080   8510               LDD     R17, Z+8
   \   00000082   ........           CALL    take_averaged_sample_all_channels
    151          }
   \                     ??_wrapper_take_averaged_sample_all_channels_5:
   \   00000086   9189               LD      R24, Y+
   \   00000088   91A9               LD      R26, Y+
   \   0000008A   91B9               LD      R27, Y+
   \   0000008C   9508               RET
    152          
    153          
    154          #pragma location="main"

   \                                 In  segment main, align 2, keep-with-next
    155          void main(void)
   \                     main:
    156          {
    157              _wrapper_take_averaged_sample(0, 0, 0);
   \   00000000   E040               LDI     R20, 0
   \   00000002   E050               LDI     R21, 0
   \   00000004   E020               LDI     R18, 0
   \   00000006   E030               LDI     R19, 0
   \   00000008   E000               LDI     R16, 0
   \   0000000A   ........           CALL    _wrapper_take_averaged_sample
    158              _wrapper_GetADCSanmpledValues(0, 0, 0);
   \   0000000E   E040               LDI     R20, 0
   \   00000010   E050               LDI     R21, 0
   \   00000012   E020               LDI     R18, 0
   \   00000014   E030               LDI     R19, 0
   \   00000016   E000               LDI     R16, 0
   \   00000018   ........           CALL    _wrapper_GetADCSanmpledValues
    159              _wrapper_startup(0, 0, 0);
   \   0000001C   E040               LDI     R20, 0
   \   0000001E   E050               LDI     R21, 0
   \   00000020   E020               LDI     R18, 0
   \   00000022   E030               LDI     R19, 0
   \   00000024   E000               LDI     R16, 0
   \   00000026   ........           CALL    _wrapper_startup
    160              _wrapper_take_averaged_sample_all_channels(0, 0, 0);
   \   0000002A   E040               LDI     R20, 0
   \   0000002C   E050               LDI     R21, 0
   \   0000002E   E020               LDI     R18, 0
   \   00000030   E030               LDI     R19, 0
   \   00000032   E000               LDI     R16, 0
   \   00000034   ........           CALL    _wrapper_take_averaged_sample_all_channels
    161              _wrapper_ReadADCdatachunks(0, 0, 0);
   \   00000038   E040               LDI     R20, 0
   \   0000003A   E050               LDI     R21, 0
   \   0000003C   E020               LDI     R18, 0
   \   0000003E   E030               LDI     R19, 0
   \   00000040   E000               LDI     R16, 0
   \   00000042   ........           JMP     _wrapper_ReadADCdatachunks
    162          }

   Maximum stack usage in bytes:

   CSTACK RSTACK Function
   ------ ------ --------
      3      2   _wrapper_GetADCSanmpledValues
        3      2   -- Indirect call
        3      2   -> GetADCSanmpledValues
      3      2   _wrapper_ReadADCdatachunks
        3      2   -- Indirect call
        3      2   -> ReadADCdatachunks
      3      2   _wrapper_startup
        3      2   -- Indirect call
        3      2   -> startup
      3      2   _wrapper_take_averaged_sample
        3      2   -- Indirect call
        3      2   -> take_averaged_sample
      3      2   _wrapper_take_averaged_sample_all_channels
        3      2   -- Indirect call
        3      2   -> take_averaged_sample_all_channels
      0      2   main
        0      2   -> _wrapper_GetADCSanmpledValues
        0      2   -> _wrapper_ReadADCdatachunks
        0      2   -> _wrapper_startup
        0      2   -> _wrapper_take_averaged_sample
        0      2   -> _wrapper_take_averaged_sample_all_channels


   Segment part sizes:

   Bytes  Function/Label
   -----  --------------
     172  _wrapper_GetADCSanmpledValues
     168  _wrapper_ReadADCdatachunks
      82  _wrapper_startup
     152  _wrapper_take_averaged_sample
     142  _wrapper_take_averaged_sample_all_channels
      70  main

 
 716 bytes in segment CODE
  70 bytes in segment main
 
 786 bytes of CODE memory

Errors: none
Warnings: none
