################################################################################
#                                                                              #
#      IAR Universal Linker V6.4.4.85                                          #
#                                                                              #
#           Link time     =  21/Jul/2016  09:28:34                             #
#           Target CPU    =  A90                                               #
#           List file     =  List\top.map                                      #
#           Output file 1 =  C:\Users\admin.akthar\Documents\Portal\snappyImag #
#                            es\SmartMeshNode_c_build\Exe\top.bin              #
#                            Format: raw-binary                                #
#           Output file 2 =  C:\Users\admin.akthar\Documents\Portal\snappyImag #
#                            es\SmartMeshNode_c_build\Exe\top.d90              #
#                            Format: ubrof10                                   #
#                            UBROF version 10.0.6                              #
#                            Using library modules for C-SPY (-rt)             #
#           Command line  =  Obj\ADC_C_0.r90 Obj\main_1.r90                    #
#                            Obj\snap_utils_2.r90                              #
#                            "C:\Program Files (x86)\IAR Systems\Embedded Work #
#                            bench 7.4\avr\lib\clib\cl3s-ec_mul.r90"           #
#                            -xmsn -f link.xcl (-ca90 -w29                     #
#                            -D_..X_INTVEC_SIZE=120 -D_..X_FLASH_NEND=FFFF     #
#                            -D_..X_SRAM_BASE=200 -D_..X_SRAM_END=41FF         #
#                            -D_..X_CSTACK_SIZE=200 -D_..X_RSTACK_SIZE=200     #
#                            -D_..X_UNUSED_RAM_START=_..X_SRAM_BASE            #
#                            -D_..X_UNUSED_RAM_END=800 -D_..X_DBLOB_END=F7FF   #
#                            -D_..X_UNUSED_CODE_START=400                      #
#                            -D_..X_UNUSED_CODE_END=BFF                        #
#                            -D_..X_FLASH_END=1FFFF                            #
#                            -Z(CODE)INTVEC=0-(_..X_INTVEC_SIZE-1)             #
#                            -Z(CODE)INITTAB,NEAR_ID,NEAR_C,NEAR_F,FAR_F,CODE, #
#                            SWITCH=_..X_DBLOB_START-_..X_DBLOB_END            #
#                            -Z(CODE)main=_..X_UNUSED_CODE_START-_..X_UNUSED_C #
#                            ODE_END                                           #
#                            -Z(DATA)CSTACK+_..X_CSTACK_SIZE,RSTACK+_..X_RSTAC #
#                            K_SIZE=_..X_UNUSED_RAM_START-_..X_UNUSED_RAM_END  #
#                            -Z(DATA)NEAR_I,NEAR_Z,NEAR_N#_..X_USED_RAM_START- #
#                            _..X_USED_RAM_END                                 #
#                            -D_..X_FLASH_BASE=_..X_INTVEC_SIZE -H1895         #
#                            -h(CODE)0-(_..X_INTVEC_SIZE-1)) -rt -l            #
#                            List\top.map -Oraw-binary=Exe\top.bin             #
#                            -D_..X_DBLOB_START=F25                            #
#                            -D_..X_USED_RAM_START=38F7                        #
#                            -D_..X_USED_RAM_END=41FF                          #
#                                                                              #
#                           Copyright (C) 1987-2016 IAR Systems AB.            #
################################################################################





                ****************************************
                *                                      *
                *           CROSS REFERENCE            *
                *                                      *
                ****************************************

                  There are no program entries.




                ****************************************
                *                                      *
                *            RUNTIME MODEL             *
                *                                      *
                ****************************************

  __64bit_doubles = disabled
  __SystemLibrary = CLib
  __cpu           = 3
  __cpu_name      = ATmega128RFA1
  __enhanced_core = enabled
  __has_elpm      = true
  __memory_model  = 2
  __no_rampd      = enabled
  __rt_version    = 3
  __tiny_avr      = false

                ****************************************
                *                                      *
                *    AUTOMATIC SYMBOL REDIRECTIONS     *
                *                                      *
                ****************************************

                  There are no automatic symbol redirections.



                ****************************************
                *                                      *
                *              MODULE MAP              *
                *                                      *
                ****************************************


  DEFINED ABSOLUTE ENTRIES
  PROGRAM MODULE, NAME : ?ABS_ENTRY_MOD

Absolute parts
           ENTRY                   ADDRESS         REF BY
           =====                   =======         ======
           _..X_USED_RAM_END       000041FF 
           _..X_USED_RAM_START     000038F7 
           _..X_DBLOB_START        00000F25 
           _..X_FLASH_BASE         00000120 
           _..X_FLASH_END          0001FFFF 
           _..X_UNUSED_CODE_END    00000BFF 
           _..X_UNUSED_CODE_START
                                   00000400 
           _..X_DBLOB_END          0000F7FF 
           _..X_UNUSED_RAM_END     00000800 
           _..X_UNUSED_RAM_START   00000200 
           _..X_RSTACK_SIZE        00000200 
           _..X_CSTACK_SIZE        00000200 
           _..X_SRAM_END           000041FF 
           _..X_SRAM_BASE          00000200 
           _..X_FLASH_NEND         0000FFFF 
           _..X_INTVEC_SIZE        00000120 
    *************************************************************************

  FILE NAME : C:\Users\admin.akthar\Documents\Portal\snappyImages\SmartMeshNode_c_build\Obj\ADC_C_0.r90
  PROGRAM MODULE, NAME : ADC_C

  SEGMENTS IN THE MODULE
  ======================
ABSOLUTE
  Relative segment, address: DATA 00000078 - 00000079 (0x2 bytes), align: 0
  Segment part 1. ROOT        Intra module refs:   take_sample
           ENTRY                   ADDRESS         REF BY
           =====                   =======         ======
           _A_ADC                  00000078 
    -------------------------------------------------------------------------
ABSOLUTE
  Relative segment, address: DATA 0000007A - 0000007A (0x1 bytes), align: 0
  Segment part 2. ROOT        Intra module refs:   enable_adc_and_set_channel
                                                   take_sample
           ENTRY                   ADDRESS         REF BY
           =====                   =======         ======
           _A_ADCSRA               0000007A 
    -------------------------------------------------------------------------
ABSOLUTE
  Relative segment, address: DATA 0000007B - 0000007B (0x1 bytes), align: 0
  Segment part 3. ROOT        Intra module refs:   enable_adc_and_set_channel
           ENTRY                   ADDRESS         REF BY
           =====                   =======         ======
           _A_ADCSRB               0000007B 
    -------------------------------------------------------------------------
ABSOLUTE
  Relative segment, address: DATA 0000007C - 0000007C (0x1 bytes), align: 0
  Segment part 4. ROOT        Intra module refs:   enable_adc_and_set_channel
           ENTRY                   ADDRESS         REF BY
           =====                   =======         ======
           _A_ADMUX                0000007C 
    -------------------------------------------------------------------------
NEAR_Z
  Relative segment, address: DATA 00003ECE - 000041ED (0x320 bytes), align: 0
  Segment part 11.            Intra module refs:   GetADCSanmpledValues
                                                   startup
                                                   take_averaged_sample
    -------------------------------------------------------------------------
NEAR_Z
  Relative segment, address: DATA 000041EE - 000041FD (0x10 bytes), align: 0
  Segment part 14.            Intra module refs:   startup
                                                   take_averaged_sample
    -------------------------------------------------------------------------
CODE
  Relative segment, address: CODE 00000F36 - 00000F63 (0x2e bytes), align: 1
  Segment part 15.
           ENTRY                   ADDRESS         REF BY
           =====                   =======         ======
           startup                 00000F36        _wrapper_startup (main)
    -------------------------------------------------------------------------
CODE
  Relative segment, address: CODE 00000F64 - 00000F7F (0x1c bytes), align: 1
  Segment part 16.            Intra module refs:   take_averaged_sample
                                                   take_averaged_sample_all_channels
           ENTRY                   ADDRESS         REF BY
           =====                   =======         ======
           take_sample             00000F64 
    -------------------------------------------------------------------------
CODE
  Relative segment, address: CODE 00000F80 - 00000FB1 (0x32 bytes), align: 1
  Segment part 17.            Intra module refs:   take_averaged_sample
                                                   take_averaged_sample_all_channels
           ENTRY                   ADDRESS         REF BY
           =====                   =======         ======
           enable_adc_and_set_channel
                                   00000F80 
    -------------------------------------------------------------------------
CODE
  Relative segment, address: CODE 00000FB2 - 0000103B (0x8a bytes), align: 1
  Segment part 18.
           ENTRY                   ADDRESS         REF BY
           =====                   =======         ======
           take_averaged_sample    00000FB2        _wrapper_take_averaged_sample (main)
               calls direct
    -------------------------------------------------------------------------
CODE
  Relative segment, address: CODE 0000103C - 00001055 (0x1a bytes), align: 1
  Segment part 19.
           ENTRY                   ADDRESS         REF BY
           =====                   =======         ======
           take_averaged_sample_all_channels
                                   0000103C        _wrapper_take_averaged_sample_all_channels (main)
               calls direct
    -------------------------------------------------------------------------
CODE
  Relative segment, address: CODE 00001056 - 00001075 (0x20 bytes), align: 1
  Segment part 20.
           ENTRY                   ADDRESS         REF BY
           =====                   =======         ======
           GetADCSanmpledValues    00001056        _wrapper_GetADCSanmpledValues (main)
    -------------------------------------------------------------------------
CODE
  Relative segment, address: CODE 00001076 - 0000109B (0x26 bytes), align: 1
  Segment part 21.
           ENTRY                   ADDRESS         REF BY
           =====                   =======         ======
           ReadADCdatachunks       00001076        _wrapper_ReadADCdatachunks (main)
    -------------------------------------------------------------------------
ABSOLUTE
  Relative segment, address: DATA 0000001F, align: 0
  Segment part 5. ROOT 
           ENTRY                   ADDRESS         REF BY
           =====                   =======         ======
           __?EECR                 0000001F 
    -------------------------------------------------------------------------
ABSOLUTE
  Relative segment, address: DATA 00000020, align: 0
  Segment part 6. ROOT 
           ENTRY                   ADDRESS         REF BY
           =====                   =======         ======
           __?EEDR                 00000020 
    -------------------------------------------------------------------------
ABSOLUTE
  Relative segment, address: DATA 00000021, align: 0
  Segment part 7. ROOT 
           ENTRY                   ADDRESS         REF BY
           =====                   =======         ======
           __?EEARL                00000021 
    -------------------------------------------------------------------------
ABSOLUTE
  Relative segment, address: DATA 00000022, align: 0
  Segment part 8. ROOT 
           ENTRY                   ADDRESS         REF BY
           =====                   =======         ======
           __?EEARH                00000022 
    -------------------------------------------------------------------------
INITTAB
  Relative segment, address: CODE 00000F25 - 00000F2B (0x7 bytes), align: 0
  Segment part 12.            Intra module refs:   Segment part 11
                                                   Segment part 14
           ENTRY                   ADDRESS         REF BY
           =====                   =======         ======
           ?<Segment init: NEAR_Z>
                                   00000F25 

    *************************************************************************

  FILE NAME : C:\Users\admin.akthar\Documents\Portal\snappyImages\SmartMeshNode_c_build\Obj\main_1.r90
  PROGRAM MODULE, NAME : main

  SEGMENTS IN THE MODULE
  ======================
CODE
  Relative segment, address: CODE 0000109C - 00001147 (0xac bytes), align: 1
  Segment part 7.             Intra module refs:   main
           ENTRY                   ADDRESS         REF BY
           =====                   =======         ======
           _wrapper_GetADCSanmpledValues
                                   0000109C 
               calls direct and indirect
    -------------------------------------------------------------------------
CODE
  Relative segment, address: CODE 00001148 - 000011EF (0xa8 bytes), align: 1
  Segment part 8.             Intra module refs:   main
           ENTRY                   ADDRESS         REF BY
           =====                   =======         ======
           _wrapper_ReadADCdatachunks
                                   00001148 
               calls direct and indirect
    -------------------------------------------------------------------------
CODE
  Relative segment, address: CODE 000011F0 - 00001241 (0x52 bytes), align: 1
  Segment part 9.             Intra module refs:   main
           ENTRY                   ADDRESS         REF BY
           =====                   =======         ======
           _wrapper_startup        000011F0 
               calls direct and indirect
    -------------------------------------------------------------------------
CODE
  Relative segment, address: CODE 00001242 - 000012D9 (0x98 bytes), align: 1
  Segment part 10.            Intra module refs:   main
           ENTRY                   ADDRESS         REF BY
           =====                   =======         ======
           _wrapper_take_averaged_sample
                                   00001242 
               calls direct and indirect
    -------------------------------------------------------------------------
CODE
  Relative segment, address: CODE 000012DA - 00001367 (0x8e bytes), align: 1
  Segment part 11.            Intra module refs:   main
           ENTRY                   ADDRESS         REF BY
           =====                   =======         ======
           _wrapper_take_averaged_sample_all_channels
                                   000012DA 
               calls direct and indirect
    -------------------------------------------------------------------------
main
  Relative segment, address: CODE 00000400 - 00000445 (0x46 bytes), align: 1
  Segment part 12.
           ENTRY                   ADDRESS         REF BY
           =====                   =======         ======
           main                    00000400        ?cstartup_call_main (?C_STARTUP)
               calls direct

    *************************************************************************

  FILE NAME : C:\Users\admin.akthar\Documents\Portal\snappyImages\SmartMeshNode_c_build\Obj\snap_utils_2.r90
  PROGRAM MODULE, NAME : snap_utils

  SEGMENTS IN THE MODULE
  ======================
NEAR_I
  Relative segment, address: DATA 000041FE - 000041FF (0x2 bytes), align: 0
  Segment part 18.
           ENTRY                   ADDRESS         REF BY
           =====                   =======         ======
           pyerr                   000041FE        _wrapper_GetADCSanmpledValues (main)
                                                   _wrapper_ReadADCdatachunks (main)
                                                   _wrapper_startup (main)
                                                   _wrapper_take_averaged_sample (main)
                                                   _wrapper_take_averaged_sample_all_channels (main)
    -------------------------------------------------------------------------
INITTAB
  Relative segment, address: CODE 00000F2C - 00000F32 (0x7 bytes), align: 0
  Segment part 9.             Intra module refs:   pyerr
           ENTRY                   ADDRESS         REF BY
           =====                   =======         ======
           ?<Segment init: NEAR_I>
                                   00000F2C 
    -------------------------------------------------------------------------
NEAR_ID
  Relative segment, address: CODE 00000F33 - 00000F34 (0x2 bytes), align: 0
  Segment part 19.            Intra module refs:   pyerr

    *************************************************************************

  FILE NAME : C:\Program Files (x86)\IAR Systems\Embedded Workbench 7.4\avr\lib\clib\cl3s-ec_mul.r90
  LIBRARY MODULE, NAME : ?__exit

  SEGMENTS IN THE MODULE
  ======================
CODE
  Relative segment, address: CODE 00001368 - 0000136D (0x6 bytes), align: 1
  Segment part 0.
           ENTRY                   ADDRESS         REF BY
           =====                   =======         ======
           __exit                  0000136A 
           ?C_EXIT                 0000136A 
           ?C_FUNCALL              00001368 
           _exit                   00001368        ?cstartup_call_main (?C_STARTUP)
           exit                    00001368        ?cstartup_call_main (?C_STARTUP)

    -------------------------------------------------------------------------
  LIBRARY MODULE, NAME : ?RESET

  SEGMENTS IN THE MODULE
  ======================
INTVEC
  Common segment, address: CODE 00000000 - 00000003 (0x4 bytes), align: 1
  Segment part 0. ROOT 
           ENTRY                   ADDRESS         REF BY
           =====                   =======         ======
           ?RESET                  00000000        Segment part 2 (?C_STARTUP)

    -------------------------------------------------------------------------
  LIBRARY MODULE, NAME : ?C_STARTUP

  SEGMENTS IN THE MODULE
  ======================
CODE
  Relative segment, address: CODE 0000136E, align: 1
  Segment part 2.
           ENTRY                   ADDRESS         REF BY
           =====                   =======         ======
           __program_start         0000136E 
           ?C_STARTUP              0000136E        ?RESET (?RESET)
           __RESTART               0000136E 
    -------------------------------------------------------------------------
CODE
  Relative segment, address: CODE 0000136E - 00001379 (0xc bytes), align: 1
  Segment part 5.             Intra module refs:   Segment part 2
    -------------------------------------------------------------------------
CODE
  Relative segment, address: CODE 0000137A - 0000137D (0x4 bytes), align: 1
  Segment part 7.             Intra module refs:   Segment part 5
           ENTRY                   ADDRESS         REF BY
           =====                   =======         ======
           ?call_low_level_init    0000137A 
    -------------------------------------------------------------------------
CODE
  Relative segment, address: CODE 0000137E - 00001385 (0x8 bytes), align: 1
  Segment part 8.
           ENTRY                   ADDRESS         REF BY
           =====                   =======         ======
           ?need_segment_init      0000137E        ?<Segment init: NEAR_I> (snap_utils)
                                                   ?<Segment init: NEAR_Z> (ADC_C)
    -------------------------------------------------------------------------
CODE
  Relative segment, address: CODE 00001386 - 00001391 (0xc bytes), align: 1
  Segment part 9.             Intra module refs:   ?call_low_level_init
           ENTRY                   ADDRESS         REF BY
           =====                   =======         ======
           ?cstartup_call_main     00001386 

    -------------------------------------------------------------------------
  LIBRARY MODULE, NAME : ?low_level_init

  SEGMENTS IN THE MODULE
  ======================
CODE
  Relative segment, address: CODE 00001392 - 00001395 (0x4 bytes), align: 1
  Segment part 3.
           ENTRY                   ADDRESS         REF BY
           =====                   =======         ======
           __low_level_init        00001392        ?call_low_level_init (?C_STARTUP)

    -------------------------------------------------------------------------
  LIBRARY MODULE, NAME : ?segment_init

  SEGMENTS IN THE MODULE
  ======================
CODE
  Relative segment, address: CODE 00001396 - 000013A1 (0xc bytes), align: 1
  Segment part 3.             Intra module refs:   __segment_init
           LOCAL                   ADDRESS         
           =====                   =======         
           __memclr                00001396 
    -------------------------------------------------------------------------
CODE
  Relative segment, address: CODE 000013A2 - 000013B5 (0x14 bytes), align: 1
  Segment part 4.             Intra module refs:   __segment_init
           LOCAL                   ADDRESS         
           =====                   =======         
           __flashcpy              000013A2 
    -------------------------------------------------------------------------
CODE
  Relative segment, address: CODE 000013B6 - 0000140B (0x56 bytes), align: 1
  Segment part 5.
           ENTRY                   ADDRESS         REF BY
           =====                   =======         ======
           __segment_init          000013B6        ?need_segment_init (?C_STARTUP)
               calls direct

    *************************************************************************

  DEFINED ABSOLUTE ENTRIES
  PROGRAM MODULE, NAME : ?FILLER_BYTES

  SEGMENTS IN THE MODULE
  ======================
INTVEC
  Common segment, address: CODE 00000000 - 00000003 (0x4 bytes), align: 0
  Segment part 1.
    -------------------------------------------------------------------------
?FILL1
  Relative segment, address: CODE 00000004 - 0000011F (0x11c bytes), align: 0
  Segment part 0.




                ****************************************
                *                                      *
                *            MODULE SUMMARY            *
                *                                      *
                ****************************************

Module               CODE      DATA
------               ----      ----
                    (Rel)  (Rel)  (Abs)
?C_STARTUP             36
?FILLER_BYTES         284
  + common              4
?RESET
  + common              4
?__exit                 6
?low_level_init         4
?segment_init         118
ADC_C                 365    816      5
main                  786
snap_utils              9      2
N/A (command line)         1 024
N/A (alignment)
----------          -----  -----      -
Total:              1 608  1 842      5
  + common              4


                ****************************************
                *                                      *
                *      SEGMENTS IN ADDRESS ORDER       *
                *                                      *
                ****************************************


SEGMENT              SPACE    START ADDRESS   END ADDRESS     SIZE  TYPE  ALIGN
=======              =====    =============   ===========     ====  ====  =====
INTVEC               CODE          00000000 - 00000003           4   com    1
?FILL1               CODE          00000004 - 0000011F         11C   rel    0
main                 CODE          00000400 - 00000445          46   rel    1
INITTAB              CODE          00000F25 - 00000F32           E   rel    0
NEAR_ID              CODE          00000F33 - 00000F34           2   rel    0
NEAR_F               CODE               00000F35                     dse    0
NEAR_C               CODE               00000F35                     dse    0
FAR_F                CODE               00000F35                     dse    0
CODE                 CODE          00000F36 - 0000140B         4D6   rel    1
ABSOLUTE             DATA               0000001F                     rel    0
                     DATA               00000020                   
                     DATA               00000021                   
                     DATA               00000022                   
                     DATA          00000078 - 0000007C           5 
CSTACK               DATA          00000200 - 000003FF         200   dse    0
RSTACK               DATA          00000400 - 000005FF         200   dse    0
NEAR_Z               DATA          00003ECE - 000041FD         330   rel    0
NEAR_I               DATA          000041FE - 000041FF           2   rel    0

                ****************************************
                *                                      *
                *        END OF CROSS REFERENCE        *
                *                                      *
                ****************************************

 1 328 bytes of CODE memory (+            284 range fill )
 1 842 bytes of DATA memory (+ 5 absolute )

Errors: none
Warnings: none

